{
  "_format": "hh-sol-artifact-1",
  "contractName": "CertificateRegistry",
  "sourceName": "contracts/CertificateRegistery.sol",
  "abi": [
    {
      "inputs": [],
      "stateMutability": "nonpayable",
      "type": "constructor"
    },
    {
      "anonymous": false,
      "inputs": [
        {
          "indexed": true,
          "internalType": "string",
          "name": "qrCodeId",
          "type": "string"
        },
        {
          "indexed": false,
          "internalType": "string",
          "name": "certificateHash",
          "type": "string"
        },
        {
          "indexed": false,
          "internalType": "string",
          "name": "mongoIssuerId",
          "type": "string"
        },
        {
          "indexed": false,
          "internalType": "uint256",
          "name": "timestamp",
          "type": "uint256"
        }
      ],
      "name": "CertificateIssued",
      "type": "event"
    },
    {
      "inputs": [
        {
          "internalType": "string",
          "name": "",
          "type": "string"
        }
      ],
      "name": "certificates",
      "outputs": [
        {
          "internalType": "string",
          "name": "certificateHash",
          "type": "string"
        },
        {
          "internalType": "string",
          "name": "ipfsCID",
          "type": "string"
        },
        {
          "internalType": "string",
          "name": "mongoIssuerId",
          "type": "string"
        },
        {
          "internalType": "uint256",
          "name": "timestamp",
          "type": "uint256"
        }
      ],
      "stateMutability": "view",
      "type": "function"
    },
    {
      "inputs": [
        {
          "internalType": "string",
          "name": "_qrCodeId",
          "type": "string"
        }
      ],
      "name": "getCertificate",
      "outputs": [
        {
          "components": [
            {
              "internalType": "string",
              "name": "certificateHash",
              "type": "string"
            },
            {
              "internalType": "string",
              "name": "ipfsCID",
              "type": "string"
            },
            {
              "internalType": "string",
              "name": "mongoIssuerId",
              "type": "string"
            },
            {
              "internalType": "uint256",
              "name": "timestamp",
              "type": "uint256"
            }
          ],
          "internalType": "struct CertificateRegistry.CertData",
          "name": "",
          "type": "tuple"
        }
      ],
      "stateMutability": "view",
      "type": "function"
    },
    {
      "inputs": [
        {
          "internalType": "string",
          "name": "_qrCodeId",
          "type": "string"
        },
        {
          "internalType": "string",
          "name": "_certificateHash",
          "type": "string"
        },
        {
          "internalType": "string",
          "name": "_ipfsCID",
          "type": "string"
        },
        {
          "internalType": "string",
          "name": "_mongoIssuerId",
          "type": "string"
        }
      ],
      "name": "issueCertificate",
      "outputs": [],
      "stateMutability": "nonpayable",
      "type": "function"
    },
    {
      "inputs": [],
      "name": "owner",
      "outputs": [
        {
          "internalType": "address",
          "name": "",
          "type": "address"
        }
      ],
      "stateMutability": "view",
      "type": "function"
    }
  ],
  "bytecode": "0x6080604052348015600f57600080fd5b50336000806101000a81548173ffffffffffffffffffffffffffffffffffffffff021916908373ffffffffffffffffffffffffffffffffffffffff1602179055506110518061005f6000396000f3fe608060405234801561001057600080fd5b506004361061004c5760003560e01c8063818a2994146100515780638da5cb5b1461006d5780638f2b91ea1461008b578063ed0f2e75146100be575b600080fd5b61006b6004803603810190610066919061084d565b6100ee565b005b6100756102d1565b6040516100829190610965565b60405180910390f35b6100a560048036038101906100a09190610980565b6102f5565b6040516100b59493929190610a61565b60405180910390f35b6100d860048036038101906100d39190610980565b6104d3565b6040516100e59190610b85565b60405180910390f35b60008054906101000a900473ffffffffffffffffffffffffffffffffffffffff1673ffffffffffffffffffffffffffffffffffffffff163373ffffffffffffffffffffffffffffffffffffffff161461017c576040517f08c379a000000000000000000000000000000000000000000000000000000000815260040161017390610c19565b60405180910390fd5b600060018560405161018e9190610c75565b908152602001604051809103902060000180546101aa90610cbb565b9050146101ec576040517f08c379a00000000000000000000000000000000000000000000000000000000081526004016101e390610d38565b60405180910390fd5b60405180608001604052808481526020018381526020018281526020014281525060018560405161021d9190610c75565b908152602001604051809103902060008201518160000190816102409190610f04565b5060208201518160010190816102569190610f04565b50604082015181600201908161026c9190610f04565b5060608201518160030155905050836040516102889190610c75565b60405180910390207f96271eaf370790942baffd60b2c0f9dcadd6d8141dbca33de0c8fb12f0efd4848483426040516102c393929190610fd6565b60405180910390a250505050565b60008054906101000a900473ffffffffffffffffffffffffffffffffffffffff1681565b60018180516020810182018051848252602083016020850120818352809550505050505060009150905080600001805461032e90610cbb565b80601f016020809104026020016040519081016040528092919081815260200182805461035a90610cbb565b80156103a75780601f1061037c576101008083540402835291602001916103a7565b820191906000526020600020905b81548152906001019060200180831161038a57829003601f168201915b5050505050908060010180546103bc90610cbb565b80601f01602080910402602001604051908101604052809291908181526020018280546103e890610cbb565b80156104355780601f1061040a57610100808354040283529160200191610435565b820191906000526020600020905b81548152906001019060200180831161041857829003601f168201915b50505050509080600201805461044a90610cbb565b80601f016020809104026020016040519081016040528092919081815260200182805461047690610cbb565b80156104c35780601f10610498576101008083540402835291602001916104c3565b820191906000526020600020905b8154815290600101906020018083116104a657829003601f168201915b5050505050908060030154905084565b6104db6106cb565b6001826040516104eb9190610c75565b908152602001604051809103902060405180608001604052908160008201805461051490610cbb565b80601f016020809104026020016040519081016040528092919081815260200182805461054090610cbb565b801561058d5780601f106105625761010080835404028352916020019161058d565b820191906000526020600020905b81548152906001019060200180831161057057829003601f168201915b505050505081526020016001820180546105a690610cbb565b80601f01602080910402602001604051908101604052809291908181526020018280546105d290610cbb565b801561061f5780601f106105f45761010080835404028352916020019161061f565b820191906000526020600020905b81548152906001019060200180831161060257829003601f168201915b5050505050815260200160028201805461063890610cbb565b80601f016020809104026020016040519081016040528092919081815260200182805461066490610cbb565b80156106b15780601f10610686576101008083540402835291602001916106b1565b820191906000526020600020905b81548152906001019060200180831161069457829003601f168201915b505050505081526020016003820154815250509050919050565b6040518060800160405280606081526020016060815260200160608152602001600081525090565b6000604051905090565b600080fd5b600080fd5b600080fd5b600080fd5b6000601f19601f8301169050919050565b7f4e487b7100000000000000000000000000000000000000000000000000000000600052604160045260246000fd5b61075a82610711565b810181811067ffffffffffffffff8211171561077957610778610722565b5b80604052505050565b600061078c6106f3565b90506107988282610751565b919050565b600067ffffffffffffffff8211156107b8576107b7610722565b5b6107c182610711565b9050602081019050919050565b82818337600083830152505050565b60006107f06107eb8461079d565b610782565b90508281526020810184848401111561080c5761080b61070c565b5b6108178482856107ce565b509392505050565b600082601f83011261083457610833610707565b5b81356108448482602086016107dd565b91505092915050565b60008060008060808587031215610867576108666106fd565b5b600085013567ffffffffffffffff81111561088557610884610702565b5b6108918782880161081f565b945050602085013567ffffffffffffffff8111156108b2576108b1610702565b5b6108be8782880161081f565b935050604085013567ffffffffffffffff8111156108df576108de610702565b5b6108eb8782880161081f565b925050606085013567ffffffffffffffff81111561090c5761090b610702565b5b6109188782880161081f565b91505092959194509250565b600073ffffffffffffffffffffffffffffffffffffffff82169050919050565b600061094f82610924565b9050919050565b61095f81610944565b82525050565b600060208201905061097a6000830184610956565b92915050565b600060208284031215610996576109956106fd565b5b600082013567ffffffffffffffff8111156109b4576109b3610702565b5b6109c08482850161081f565b91505092915050565b600081519050919050565b600082825260208201905092915050565b60005b83811015610a035780820151818401526020810190506109e8565b60008484015250505050565b6000610a1a826109c9565b610a2481856109d4565b9350610a348185602086016109e5565b610a3d81610711565b840191505092915050565b6000819050919050565b610a5b81610a48565b82525050565b60006080820190508181036000830152610a7b8187610a0f565b90508181036020830152610a8f8186610a0f565b90508181036040830152610aa38185610a0f565b9050610ab26060830184610a52565b95945050505050565b600082825260208201905092915050565b6000610ad7826109c9565b610ae18185610abb565b9350610af18185602086016109e5565b610afa81610711565b840191505092915050565b610b0e81610a48565b82525050565b60006080830160008301518482036000860152610b318282610acc565b91505060208301518482036020860152610b4b8282610acc565b91505060408301518482036040860152610b658282610acc565b9150506060830151610b7a6060860182610b05565b508091505092915050565b60006020820190508181036000830152610b9f8184610b14565b905092915050565b7f4f6e6c79206f776e65722063616e20697373756520636572746966696361746560008201527f7300000000000000000000000000000000000000000000000000000000000000602082015250565b6000610c036021836109d4565b9150610c0e82610ba7565b604082019050919050565b60006020820190508181036000830152610c3281610bf6565b9050919050565b600081905092915050565b6000610c4f826109c9565b610c598185610c39565b9350610c698185602086016109e5565b80840191505092915050565b6000610c818284610c44565b915081905092915050565b7f4e487b7100000000000000000000000000000000000000000000000000000000600052602260045260246000fd5b60006002820490506001821680610cd357607f821691505b602082108103610ce657610ce5610c8c565b5b50919050565b7f436572746966696361746520494420616c726561647920657869737473000000600082015250565b6000610d22601d836109d4565b9150610d2d82610cec565b602082019050919050565b60006020820190508181036000830152610d5181610d15565b9050919050565b60008190508160005260206000209050919050565b60006020601f8301049050919050565b600082821b905092915050565b600060088302610dba7fffffffffffffffffffffffffffffffffffffffffffffffffffffffffffffffff82610d7d565b610dc48683610d7d565b95508019841693508086168417925050509392505050565b6000819050919050565b6000610e01610dfc610df784610a48565b610ddc565b610a48565b9050919050565b6000819050919050565b610e1b83610de6565b610e2f610e2782610e08565b848454610d8a565b825550505050565b600090565b610e44610e37565b610e4f818484610e12565b505050565b5b81811015610e7357610e68600082610e3c565b600181019050610e55565b5050565b601f821115610eb857610e8981610d58565b610e9284610d6d565b81016020851015610ea1578190505b610eb5610ead85610d6d565b830182610e54565b50505b505050565b600082821c905092915050565b6000610edb60001984600802610ebd565b1980831691505092915050565b6000610ef48383610eca565b9150826002028217905092915050565b610f0d826109c9565b67ffffffffffffffff811115610f2657610f25610722565b5b610f308254610cbb565b610f3b828285610e77565b600060209050601f831160018114610f6e5760008415610f5c578287015190505b610f668582610ee8565b865550610fce565b601f198416610f7c86610d58565b60005b82811015610fa457848901518255600182019150602085019450602081019050610f7f565b86831015610fc15784890151610fbd601f891682610eca565b8355505b6001600288020188555050505b505050505050565b60006060820190508181036000830152610ff08186610a0f565b905081810360208301526110048185610a0f565b90506110136040830184610a52565b94935050505056fea2646970667358221220f9218e86cfe62d809e2679f3c70732d2568962cf32cdf288487e74c9a12aba2564736f6c634300081c0033",
  "linkReferences": {},
  "deployedLinkReferences": {}
}